S016000070726F796563746F5F66696E616C2E7372656330
S11300000C9434000C9451000C9451000C94510045
S11300100C9451000C948B030C9451000C945100DB
S11300200C9451000C9451000C9451000C94510008
S11300300C9451000C9451000C9451000C945100F8
S11300400C9451000C9451000C9441030C945100F5
S11300500C9451000C9486020C9451000C945100A1
S11300600C9451000C94510011241FBECFEFD8E022
S1130070DEBFCDBF11E0A0E0B1E0E0EDFCE002C0E6
S113008005900D92A230B107D9F721E0A2E0B1E0CA
S113009001C01D92A832B207E1F70E94A1000C949E
S11300A066060C940000F999FECF72BD61BD80BD57
S11300B08FB384608FBB8FB382608FBB0895F9992F
S11300C0FECF92BD81BD8FB381608FBB80B5089593
S11300D0ECE7F0E01082808180648083808180621C
S11300E08083808181608083EAE7F0E010828081F0
S11300F0806880838081886080838081876080833A
S1130100089584B1816384B98AB18F788AB98BB137
S113011080678BB987B1816287B98AB184688AB9EB
S113012088B18E7D88B98BB18B778BB9E8E6F0E026
S1130130808184608083EDE6F0E080818067808345
S11301400895E1E6F0E080818068808380818160A9
S113015080830E9481008FE19EE40E94DF030E945D
S113016025040E9468000E946904789480910A0121
S11301708130A9F018F08230F1F0F8CF85B18F7E8C
S113018085B985B18E7F85B985B1806285B9EAE785
S1130190F0E080818064808310920601E7CF85B10E
S11301A08F7D85B985B18F7E85B985B1816085B92B
S11301B010920601DBCF85B18F7D85B985B18E7F25
S11301C085B985B1806185B980910301813071F66B
S11301D010920301C0911301C0536AE370E082E1FD
S11301E091E00E945B06FC01319680E009C0880F13
S11301F0282F220F220F820F980F80ED890F31963E
S113020090819111F4CFC23069F018F4C13031F00B
S113021012C0C33059F0C43061F00DC090E00E94A8
S1130220F50309C090E00E940D0405C00E943B0440
S113023002C00E9452048FE39CE90197F1F700C0C9
S1130240000094CF80910501813069F138F082304B
S113025009F44EC0833009F470C093C088B18E7F16
S113026088B988B1806288B98BB18F778BB98BB12B
S11302708B7F8BB960E070E0809122010E94530073
S113028061E070E0809127010E94530062E070E019
S113029080910F010E94530063E070E0809123017C
S11302A00E9453006EC088B1816088B988B18F7D87
S11302B088B98BB18F778BB98BB18B7F8BB964E0A5
S11302C070E0809122010E94530065E070E080910B
S11302D027010E94530066E070E080910F010E94A4
S11302E0530067E070E0809123010E94530049C0ED
S11302F088B18E7F88B988B18F7D88B98BB18068C9
S11303008BB98BB18B7F8BB968E070E0809122014F
S11303100E94530069E070E0809127010E9453001D
S11303206AE070E080910F010E9453006BE070E07E
S1130330809123010E94530024C088B18E7F88B924
S113034088B18F7D88B98BB18F778BB98BB184607D
S11303508BB96CE070E0809122010E9453006DE043
S113036070E0809127010E9453006EE070E080915C
S11303700F010E9453006FE070E0809123010E94FE
S113038053008091050190E0019683709078992341
S113039024F401978C6F9F6F019680930501089553
S11303A080910401813079F138F0823009F452C02F
S11303B0833009F476C09BC088B18E7F88B988B138
S11303C08F7D88B98BB18F778BB98BB184608BB9F2
S11303D080E090E00E945F0090E00E94F50381E0DD
S11303E090E00E945F0090E00E940D0482E090E0A3
S11303F00E945F000E943B0483E090E00E945F0043
S11304000E94520474C088B18E7F88B988B18F7DF0
S113041088B98BB180688BB98BB18B7F8BB984E041
S113042090E00E945F0090E00E94F50385E090E078
S11304300E945F0090E00E940D0486E090E00E941C
S11304405F000E943B0487E090E00E945F000E94EE
S113045052044DC088B1816088B988B18F7D88B954
S11304608BB18F778BB98BB18B7F8BB988E090E0A0
S11304700E945F0090E00E94F50389E090E00E94F2
S11304805F0090E00E940D048AE090E00E945F000B
S11304900E943B048BE090E00E945F000E945204A3
S11304A026C088B18E7F88B988B1806288B98BB143
S11304B08F778BB98BB18B7F8BB98CE090E00E94E6
S11304C05F0090E00E94F5038DE090E00E945F00E1
S11304D090E00E940D048EE090E00E945F000E9474
S11304E03B048FE090E00E945F000E9452048091E0
S11304F0040190E0019683709078992324F4019785
S11305008C6F9F6F01968093040108951F920F9240
S11305100FB60F9211242F933F934F935F936F93D2
S11305207F938F939F93AF93BF93EF93FF938091A8
S1130530790080930E0180910B01813051F138F0E4
S1130540823009F44BC0833009F469C089C081E06A
S113055080930B01ECE7F0E010828081806480835B
S113056080818062808380818260808380910E019B
S11305708093110124EB829FC00111246FEF70E07E
S11305800E94330660932201862F90E00E94F503B7
S113059067C082E080930B01ECE7F0E01082808179
S11305A08064808380818062808380818160808395
S11305B080818260808380910E0180930C0124EB02
S11305C0829FC00111246FEF70E00E943306609394
S11305D02701862F90E00E940D0442C083E080939F
S11305E00B01ECE7F0E010828081806480838081DD
S11305F08062808380818460808380910E018093F7
S11306000D0124EB829FC00111246FEF70E00E9462
S11306103306862F60930F010E943B0421C0109281
S11306200B01ECE7F0E0108280818064808380819C
S11306308062808380818160808380910E018093B9
S1130640240124EB829FC001112480589F4F6FEF37
S113065070E00E943306862F609323010E945204A7
S1130660FF91EF91BF91AF919F918F917F916F9186
S11306705F914F913F912F910F900FBE0F901F905C
S113068018951F920F920FB60F9211242F933F9338
S11306904F935F936F937F938F939F93AF93BF9386
S11306A0EF93FF938091C600809310018A3079F014
S11306B08D3069F0E0910201EF3048F491E09E0F33
S11306C090930201F0E0EE5EFE4F808313C081E060
S11306D08093030182E191E00E94890480E091E02B
S11306E00E948904E0910201F0E0EE5EFE4F108268
S11306F010920201FF91EF91BF91AF919F918F9161
S11307007F916F915F914F913F912F910F900FBE09
S11307100F901F9018951F920F920FB60F921124ED
S11307202F933F934F935F936F937F938F939F93F5
S1130730AF93BF93EF93FF934C990AC08091080144
S1130740811106C081E0809308010E94220102C049
S1130750109208014D990AC080910701811106C0C9
S113076081E0809307010E94D00102C0109207012A
S11307704E9912C08091090181110EC081E08093CD
S1130780090180910A0190E0019663E070E00E9403
S1130790330680930A0102C010920901FF91EF9180
S11307A0BF91AF919F918F917F916F915F914F9185
S11307B03F912F910F900FBE0F901F9018959C01A1
S11307C094B1966094B9E0E8F0E0108282EA808304
S11307D0E1E8F0E0108288E1808390819260908368
S11307E030938700209386000895BC0180E090E058
S11307F00E94380526E636E640EA51E40E94C60522
S113080020E030E046E954E40E949D040E9409057A
S113081070938900609388000895BC0180E090E0A3
S11308200E94380526E636E648E951E40E94C605EA
S113083020E030E046E954E40E949D040E9409054A
S113084070938B0060938A00089584B1886084B9A2
S11308508AB188608AB9E0EBF0E010828081806A16
S11308608083808183608083E1EBF0E0108280816B
S1130870876080830895682F70E080E090E00E9494
S113088038052CE53FE842E45EE30E94C60520E01B
S113089030E040EA50E40E949D040E940905609300
S11308A0B3000895682F70E080E090E00E9438055E
S11308B02CE53FE842E45EE30E94C60520E030E018
S11308C040EA50E40E949D040E9409056093B4002C
S11308D008958AB182608AB98AB18E7F8AB91092EA
S11308E0C000E1ECF0E0808188698083E2ECF0E014
S11308F080818660808387E690E09093C500809332
S1130900C40008959091C00095FFFCCF8093C60069
S113091008950F931F93CF938C01C0E003C00E94EE
S11309208204CF5FF801EC0FF11D80818111F7CFB4
S1130930CF911F910F9108955058BB27AA270E9469
S1130940B4040C948C050E947E0538F00E94850541
S113095020F039F49F3F19F426F40C947B050EF42F
S1130960E095E7FB0C947505E92F0E949D0558F36B
S1130970BA17620773078407950720F079F4A6F580
S11309800C94BF050EF4E0950B2EBA2FA02D0B018D
S1130990B90190010C01CA01A0011124FF27591BC0
S11309A099F0593F50F4503E68F11A16F040A22FC6
S11309B0232F342F4427585FF3CF46953795279537
S11309C0A795F0405395C9F77EF41F16BA0B620B36
S11309D0730B840BBAF09150A1F0FF0FBB1F661F7D
S11309E0771F881FC2F70EC0BA0F621F731F841FC0
S11309F048F4879577956795B795F7959E3F08F0E6
S1130A00B0CF9395880F08F09927EE0F97958795A7
S1130A1008950E94A50588F09F5798F0B92F99274B
S1130A20B751B0F0E1F0660F771F881F991F1AF0D5
S1130A30BA95C9F714C0B13091F00E94BF05B1E076
S1130A4008950C94BF05672F782F8827B85F39F075
S1130A50B93FCCF3869577956795B395D9F73EF46E
S1130A6090958095709561957F4F8F4F9F4F089516
S1130A70E89409C097FB3EF4909580957095619534
S1130A807F4F8F4F9F4F9923A9F0F92F96E9BB27EA
S1130A909395F695879577956795B795F111F8CF66
S1130AA0FAF4BB0F11F460FF1BC06F5F7F4F8F4FD1
S1130AB09F4F16C0882311F096E911C0772321F0C7
S1130AC09EE8872F762F05C0662371F096E8862F5F
S1130AD070E060E02AF09A95660F771F881FDAF7B6
S1130AE0880F9695879597F9089597F99F6780E8F9
S1130AF070E060E008959FEF80EC089500240A946C
S1130B001616170618060906089500240A941216E4
S1130B101306140605060895092E0394000C11F417
S1130B20882352F0BB0F40F4BF2B11F460FF04C0C4
S1130B306F5F7F4F8F4F9F4F089557FD9058440F1D
S1130B40551F59F05F3F71F04795880F97FB991F28
S1130B5061F09F3F79F087950895121613061406E5
S1130B60551FF2CF4695F1DF08C016161706180672
S1130B70991FF1CF86957105610508940895E8944D
S1130B80BB2766277727CB0197F908950E94D905DB
S1130B900C948C050E947E0538F00E94850520F097
S1130BA0952311F00C9475050C947B0511240C9479
S1130BB0C0050E949D0570F3959FC1F3950F50E009
S1130BC0551F629FF001729FBB27F00DB11D639FFB
S1130BD0AA27F00DB11DAA1F649F6627B00DA11DA1
S1130BE0661F829F2227B00DA11D621F739FB00D47
S1130BF0A11D621F839FA00D611D221F749F3327B7
S1130C00A00D611D231F849F600D211D822F762F4F
S1130C106A2F11249F5750409AF0F1F088234AF02C
S1130C20EE0FFF1FBB1F661F771F881F9150504098
S1130C30A9F79E3F510580F00C9475050C94C005EE
S1130C405F3FE4F3983ED4F3869577956795B7951F
S1130C50F795E7959F5FC1F7FE2B880F911D969539
S1130C60879597F9089597FB072E16F4009407D0FB
S1130C7077FD09D00E94470607FC05D03EF4909505
S1130C8081959F4F0895709561957F4F0895AA1B94
S1130C90BB1B51E107C0AA1FBB1FA617B70710F063
S1130CA0A61BB70B881F991F5A95A9F78095909595
S1130CB0BC01CD010895FC018191861721F08823A0
S1130CC0D9F7992708953197CF010895F894FFCF64
S1050CD00A0014
S9030000FC
