S016000070726F796563746F5F66696E616C2E7372656330
S11300000C9434000C9451000C9451000C94510045
S11300100C9451000C942F040C9451000C94510036
S11300200C9451000C9451000C9451000C94510008
S11300300C9451000C9451000C9451000C945100F8
S11300400C9451000C9451000C94B1030C94510085
S11300500C9451000C94D0020C9451000C94510057
S11300600C9451000C94510011241FBECFEFD8E022
S1130070DEBFCDBF11E0A0E0B1E0ECEEF3E102C0E1
S113008005900D92AA30B107D9F721E0AAE0B1E0BA
S113009001C01D92A133B207E1F70E9433020C9410
S11300A0F4090C940000F999FECF72BD61BD80BDC6
S11300B08FB384608FBB8FB382608FBB0895F9992F
S11300C0FECF92BD81BD8FB381608FBB80B5089593
S11300D0ECE7F0E01082808180648083808180621C
S11300E08083808181608083EAE7F0E010828081F0
S11300F0806880838081886080838081876080833A
S1130100089584B1816384B98AB18F788AB98BB137
S113011080678BB987B1816287B98AB184688AB9EB
S113012088B18E7D88B98BB18B778BB9E8E6F0E026
S1130130808184608083EDE6F0E080818067808345
S1130140089580911101813069F138F0823009F409
S11301504EC0833009F470C093C088B18E7F88B9D3
S113016088B1806288B98BB18F778BB98BB18B7F63
S11301708BB960E070E080912D010E94530061E032
S113018070E0809130010E94530062E070E0809141
S11301901A010E94530063E070E080912E010E94D6
S11301A053006EC088B1816088B988B18F7D88B9E9
S11301B08BB18F778BB98BB18B7F8BB964E070E097
S11301C080912D010E94530065E070E08091300120
S11301D00E94530066E070E080911A010E9453006F
S11301E067E070E080912E010E94530049C088B1FD
S11301F08E7F88B988B18F7D88B98BB180688BB9BF
S11302008BB18B7F8BB968E070E080912D010E94E7
S1130210530069E070E0809130010E9453006AE06D
S113022070E080911A010E9453006BE070E08091AD
S11302302E010E94530024C088B18E7F88B988B1F2
S11302408F7D88B98BB18F778BB98BB184608BB973
S11302506CE070E080912D010E9453006DE070E02D
S1130260809130010E9453006EE070E080911A0189
S11302700E9453006FE070E080912E010E945300B1
S11302808091110190E0019683709078992324F471
S113029001978C6F9F6F019680931101089580914F
S11302A01001813079F138F0823009F452C0833082
S11302B009F476C09BC088B18E7F88B988B18F7DE0
S11302C088B98BB18F778BB98BB184608BB980E09F
S11302D090E00E945F0090E00E94990481E090E029
S11302E00E945F0090E00E94B10482E090E00E94CE
S11302F05F000E94DF0483E090E00E945F000E94A0
S1130300F60474C088B18E7F88B988B18F7D88B9AE
S11303108BB180688BB98BB18B7F8BB984E090E013
S11303200E945F0090E00E94990485E090E00E94A2
S11303305F0090E00E94B10486E090E00E945F00BC
S11303400E94DF0487E090E00E945F000E94F604B0
S11303504DC088B1816088B988B18F7D88B98BB16F
S11303608F778BB98BB18B7F8BB988E090E00E943B
S11303705F0090E00E94990489E090E00E945F0091
S113038090E00E94B1048AE090E00E945F000E9425
S1130390DF048BE090E00E945F000E94F60426C018
S11303A088B18E7F88B988B1806288B98BB18F7724
S11303B08BB98BB18B7F8BB98CE090E00E945F008E
S11303C090E00E9499048DE090E00E945F0090E02C
S11303D00E94B1048EE090E00E945F000E94DF045E
S11303E08FE090E00E945F000E94F604809110016B
S11303F090E0019683709078992324F401978C6F90
S11304009F6F01968093100108950F931F93CF93CC
S1130410DF93CDB7DEB729970FB6F894DEBF0FBED2
S1130420CDBF1F926F931F928F9380E091E09F93B3
S11304308F938E010F5F1F4F1F930F930E940A0724
S1130440C8010E942D050FB6F894DEBF0FBECDBFC4
S113045029960FB6F894DEBF0FBECDBFDF91CF91C2
S11304601F910F910895E1E6F0E080818068808318
S11304708081816080830E9481008FE19EE40E94DC
S113048083040E94C9040E9468000E940D057894A8
S1130490809115018130F9F018F0823031F1F8CFF4
S11304A085B18F7E85B985B18E7F85B985B180622E
S11304B085B9EAE7F0E080818064808380910C0153
S11304C0813031F710920C0160910A0180910B0187
S11304D00E940502DDCF85B18F7D85B985B18F7E00
S11304E085B985B1816085B9D3CF85B18F7D85B953
S11304F085B18E7F85B985B1806185B980910F0101
S1130500813031F610920F01C0911E01C0536AE38D
S113051070E08DE191E00E94FF06FC0131960CC071
S113052020910D01220F322F330F330F230F920F1F
S1130530905390930D01319690819111F1CFC23077
S113054079F018F4C13031F01AC0C33079F0C430F6
S113055091F015C080910D0190E00E9499040FC0A4
S113056080910D0190E00E94B10409C080910D01B9
S11305700E94DF0404C080910D010E94F604609182
S11305800D018C2F0E9405022FEF80E792E021508D
S113059080409040E1F700C0000010920D0178CF38
S11305A01F920F920FB60F9211242F933F934F93E4
S11305B05F936F937F938F939F93AF93BF93CF93E7
S11305C0EF93FF9380917900809319018091160134
S11305D0813091F138F0823009F45CC0833009F441
S11305E083C0ADC0C1E0C0931601ECE7F0E0108217
S11305F08081806480838081806280838081826046
S113060080838091190180931C0124EB829FC00197
S113061011246FEF70E00E94D70660932D01862F9E
S113062090E00E94990480912D0180930A01C09367
S11306300B01C0930C0183C0C2E0C0931601ECE728
S1130640F0E0108280818064808380818062808376
S113065080818160808380818260808380911901A0
S11306608093170124EB829FC00111246FEF70E087
S11306700E94D70660933001862F90E00E94B10457
S11306808091300180930A01C0930B0181E0809333
S11306900C0155C0C3E0C0931601ECE7F0E01082F2
S11306A08081806480838081806280838081846093
S11306B08083809119018093180124EB829FC001EB
S11306C011246FEF70E00E94D706862F60931A0101
S11306D00E94DF0480911A0180930A01C0930B01E8
S11306E081E080930C012BC010921601ECE7F0E03E
S11306F01082808180648083808180628083808195
S1130700816080838091190180932F0124EB829F63
S1130710C001112480589F4F6FEF70E00E94D706EC
S1130720862F60932E010E94F60480912E018093FF
S11307300A0184E080930B0181E080930C01FF9116
S1130740EF91CF91BF91AF919F918F917F916F91D5
S11307505F914F913F912F910F900FBE0F901F907B
S113076018951F920F920FB60F9211242F933F9357
S11307704F935F936F937F938F939F93AF93BF93A5
S1130780EF93FF938091C60080931B018A3091F010
S11307908D3081F0E0910E01EF3060F491E09E0F16
S11307A090930E01F0E0E35EFE4F808388B18E7F6C
S11307B088B944C081E080930F018DE191E00E94EB
S11307C02D0587E091E00E942D05E0910E01F0E0F7
S11307D0E35EFE4F108280911D018D3679F4809185
S11307E01E01813359F58091150190E0019663E073
S11307F070E00E94D7068093150120C06AE370E080
S11308008DE191E00E94FF06FC0131960CC020911D
S11308100D01220F322F330F330F230F920F9053FA
S113082090930D01319690819111F1CF88B181603F
S113083088B988B1806288B910920E01FF91EF9156
S1130840BF91AF919F918F917F916F915F914F91E4
S11308503F912F910F900FBE0F901F9018951F92EC
S11308600F920FB60F9211242F933F934F935F93E0
S11308706F937F938F939F93AF93BF93EF93FF9364
S11308804C990AC080911301811106C081E08093C4
S113089013010E94A10002C0109213014D990AC0D5
S11308A080911201811106C081E0809312010E949F
S11308B04F0102C0109212014E9912C0809114018E
S11308C081110EC081E0809314018091150190E0A4
S11308D0019663E070E00E94D7068093150102C080
S11308E010921401FF91EF91BF91AF919F918F915D
S11308F07F916F915F914F913F912F910F900FBE18
S11309000F901F9018959C0194B1966094B9E0E8FB
S1130910F0E0108282EA8083E1E8F0E0108288E16E
S11309208083908192609083309387002093860027
S11309300895BC0180E090E00E94DC0526E636E6DE
S113094040EA51E40E946A0620E030E046E954E4BB
S11309500E9441050E94AD05709389006093880050
S11309600895BC0180E090E00E94DC0526E636E6AE
S113097048E951E40E946A0620E030E046E954E484
S11309800E9441050E94AD0570938B0060938A001C
S1130990089584B1886084B98AB188608AB9E0EB2B
S11309A0F0E010828081806A80838081836080830C
S11309B0E1EBF0E010828081876080830895682FE6
S11309C070E080E090E00E94DC052CE53FE842E422
S11309D05EE30E946A0620E030E040EA50E40E94B0
S11309E041050E94AD056093B3000895682F70E03F
S11309F080E090E00E94DC052BE734E14EE25EE308
S1130A000E946A0620E030E040EA50E40E9441057A
S1130A100E94AD056093B40008958AB182608AB9DA
S1130A208AB18E7F8AB91092C000E1ECF0E0808137
S1130A3088698083E2ECF0E080818660808387E6C9
S1130A4090E09093C5008093C40008959091C000F5
S1130A5095FFFCCF8093C60008950F931F93CF9307
S1130A608C01C0E003C00E942605CF5FF801EC0FA3
S1130A70F11D80818111F7CFCF911F910F910895BE
S1130A805058BB27AA270E9458050C9430060E9490
S1130A90220638F00E94290620F039F49F3F19F409
S1130AA026F40C941F060EF4E095E7FB0C9419064B
S1130AB0E92F0E94410658F3BA17620773078407A7
S1130AC0950720F079F4A6F50C9463060EF4E095EE
S1130AD00B2EBA2FA02D0B01B90190010C01CA01F4
S1130AE0A0011124FF27591B99F0593F50F4503E9F
S1130AF068F11A16F040A22F232F342F4427585F91
S1130B00F3CF469537952795A795F0405395C9F7A8
S1130B107EF41F16BA0B620B730B840BBAF0915060
S1130B20A1F0FF0FBB1F661F771F881FC2F70EC0FF
S1130B30BA0F621F731F841F48F4879577956795D2
S1130B40B795F7959E3F08F0B0CF9395880F08F0BE
S1130B509927EE0F9795879508950E94490688F086
S1130B609F5798F0B92F9927B751B0F0E1F0660F6D
S1130B70771F881F991F1AF0BA95C9F714C0B130AE
S1130B8091F00E946306B1E008950C946306672F08
S1130B90782F8827B85F39F0B93FCCF386957795DD
S1130BA06795B395D9F73EF49095809570956195C6
S1130BB07F4F8F4F9F4F0895E89409C097FB3EF4F1
S1130BC090958095709561957F4F8F4F9F4F992396
S1130BD0A9F0F92F96E9BB279395F6958795779514
S1130BE06795B795F111F8CFFAF4BB0F11F460FFD4
S1130BF01BC06F5F7F4F8F4F9F4F16C0882311F02C
S1130C0096E911C0772321F09EE8872F762F05C03F
S1130C10662371F096E8862F70E060E02AF09A95DA
S1130C20660F771F881FDAF7880F9695879597F9CF
S1130C30089597F99F6780E870E060E008959FEF5A
S1130C4080EC089500240A9416161706180609065F
S1130C50089500240A94121613061406050608952E
S1130C60092E0394000C11F4882352F0BB0F40F4B6
S1130C70BF2B11F460FF04C06F5F7F4F8F4F9F4FF6
S1130C80089557FD9058440F551F59F05F3F71F078
S1130C904795880F97FB991F61F09F3F79F08795DF
S1130CA00895121613061406551FF2CF4695F1DF68
S1130CB008C0161617061806991FF1CF86957105F8
S1130CC0610508940895E894BB2766277727CB012C
S1130CD097F908950E947D060C9430060E9422061E
S1130CE038F00E94290620F0952311F00C9419067F
S1130CF00C941F0611240C9464060E94410670F3A0
S1130D00959FC1F3950F50E0551F629FF001729FAC
S1130D10BB27F00DB11D639FAA27F00DB11DAA1FBB
S1130D20649F6627B00DA11D661F829F2227B00D08
S1130D30A11D621F739FB00DA11D621F839FA00D93
S1130D40611D221F749F3327A00D611D231F849FE3
S1130D50600D211D822F762F6A2F11249F5750403A
S1130D609AF0F1F088234AF0EE0FFF1FBB1F661FB5
S1130D70771F881F91505040A9F79E3F510580F07E
S1130D800C9419060C9464065F3FE4F3983ED4F384
S1130D90869577956795B795F795E7959F5FC1F722
S1130DA0FE2B880F911D9695879597F9089597FBCB
S1130DB0072E16F4009407D077FD09D00E94EB06A5
S1130DC007FC05D03EF4909581959F4F089570954A
S1130DD061957F4F0895AA1BBB1B51E107C0AA1F51
S1130DE0BB1FA617B70710F0A61BB70B881F991FC8
S1130DF05A95A9F780959095BC01CD010895FC0101
S1130E008191861721F08823D9F79927089531977E
S1130E10CF010895AEE0B0E0E0E1F7E00C94CB0937
S1130E200D891E8986E08C831A8309838FEF9FE7DF
S1130E309E838D83AE01475E5F4F6F89788DCE01AF
S1130E4001960E942C07EF81F885E00FF11F1082B4
S1130E502E96E4E00C94E709ABE0B0E0E2E3F7E0BF
S1130E600C94BD096C017B018A01FC011782168276
S1130E70838181FFCCC1CE0101963C01F6019381AF
S1130E80F70193FD859193FF81917F01882309F4F4
S1130E90BAC1853239F493FD859193FF81917F0125
S1130EA0853229F4B60190E00E942309E7CF912C02
S1130EB0212C312CFFE1F315D8F08B3279F038F482
S1130EC0803279F08332A1F4232D20611DC08D324C
S1130ED061F0803369F4232D216016C0832D826074
S1130EE0382EE32DE4603E2E2AC0F32DF8601DC099
S1130EF037FC2DC020ED280F2A3040F08E32B9F493
S1130F0036FC81C1232D2064322E19C036FE06C062
S1130F108AE0989E200D1124922E11C0EAE02E9EA4
S1130F20200D1124222EF32DF0623F2E08C08C36A2
S1130F3021F4832D8068382E02C0883641F4F701ED
S1130F4093FD859193FF81917F018111B3CF982FF8
S1130F509F7D9554933028F40C5F1F4F9FE3998332
S1130F600DC0833631F0833771F0833509F059C0F1
S1130F7021C0F801808189830E5F1F4F88248394E8
S1130F80912C530113C02801F2E04F0E511CF801BB
S1130F90A080B18036FE03C0692D70E002C06FEFFF
S1130FA07FEFC5010E9418094C018201F32DFF77E0
S1130FB03F2E16C0280122E0420E511CF801A080E9
S1130FC0B18036FE03C0692D70E002C06FEF7FEF81
S1130FD0C5010E940D094C01F32DF0683F2E8201DA
S1130FE033FC1BC0822D90E088169906B0F4B6013C
S1130FF080E290E00E9423092A94F4CFF50137FCA3
S1131000859137FE81915F01B60190E00E9423092A
S113101021102A9421E0821A91088114910471F715
S1131020E8C0843611F0893641F5F80137FE07C06F
S113103060817181828193810C5F1F4F08C0608140
S11310407181072E000C880B990B0E5F1F4FF32D37
S1131050FF763F2E97FF09C0909580957095619516
S11310607F4F8F4F9F4FF0683F2E2AE030E0A3015F
S11310700E945F09882E861845C0853731F4232DD8
S11310802F7EB22E2AE030E025C0932D997FB92E11
S11310908F36C1F018F4883579F0B5C0803719F06F
S11310A0883721F0B0C0E92FE061BE2EB4FE0DC038
S11310B0FB2DF460BF2E09C034FE0AC0292F266020
S11310C0B22E06C028E030E005C020E130E002C0C6
S11310D020E132E0F801B7FE07C0608171818281AE
S11310E093810C5F1F4F06C06081718180E090E0A6
S11310F00E5F1F4FA3010E945F09882E8618FB2DE7
S1131100FF773F2E36FE0DC0232D2E7FA22E89148D
S113111058F434FE0BC032FC09C0832D8E7EA82EF9
S113112005C0B82CA32C03C0B82C01C0B92CA4FE54
S11311300FC0FE01E80DF11D8081803321F49A2D4A
S1131140997EA92E09C0A2FE06C0B394B39404C02C
S11311508A2D867809F0B394A3FC11C0A0FE06C0C2
S1131160B21488F4280C922C9B180EC0B21460F4AC
S1131170B60180E290E00E942309B394F7CFB21441
S113118018F42B1802C0982C212CA4FE10C0B60110
S113119080E390E00E942309A2FE17C0A1FC03C0D3
S11311A088E790E002C088E590E0B6010CC08A2D83
S11311B0867859F0A1FE02C08BE201C080E2A7FC50
S11311C08DE2B60190E00E942309891438F4B60137
S11311D080E390E00E9423099A94F7CF8A94F30164
S11311E0E80DF11D8081B60190E00E942309811071
S11311F0F5CF222009F442CEB60180E290E00E94AD
S113120023092A94F6CFF6018681978102C08FEFD5
S11312109FEF2B96E2E10C94D909FC0105906150F3
S113122070400110D8F7809590958E0F9F1F0895F8
S1131230FC016150704001900110D8F780959095A1
S11312408E0F9F1F08950F931F93CF93DF93FB017E
S1131250238121FD03C08FEF9FEF2CC022FF16C016
S113126046815781248135814217530744F4A08174
S1131270B1819D012F5F3F4F318320838C93268161
S113128037812F5F3F4F3783268314C08B01EC01D6
S1131290FB010084F185E02D0995892BE1F6D80145
S11312A016968D919C911797019617969C938E9301
S11312B01697CE01DF91CF911F910F910895FA01F6
S11312C0AA27283051F1203181F1E8946F936E7F81
S11312D06E5F7F4F8F4F9F4FAF4FB1E03ED0B4E072
S11312E03CD0670F781F891F9A1FA11D680F791FB3
S11312F08A1F911DA11D6A0F711D811D911DA11DC4
S113130020D009F468943F912AE0269F11243019D3
S1131310305D3193DEF6CF010895462F4770405D6E
S11313204193B3E00FD0C9F7F6CF462F4F70405D1D
S11313304A3318F0495D31FD4052419302D0A9F778
S1131340EACFB4E0A6959795879577956795BA9572
S1131350C9F700976105710508959B01AC010A2E38
S113136006945795479537952795BA95C9F7620F0F
S1131370731F841F951FA01D08952F923F924F92B3
S11313805F926F927F928F929F92AF92BF92CF9211
S1131390DF92EF92FF920F931F93CF93DF93CDB71A
S11313A0DEB7CA1BDB0B0FB6F894DEBF0FBECDBF92
S11313B009942A88398848885F846E847D848C8463
S11313C09B84AA84B984C884DF80EE80FD800C816C
S11313D01B81AA81B981CE0FD11D0FB6F894DEBF4F
S10F13E00FBECDBFED010895F894FFCFBF
S10D13EC7325753A2575000A000008
S9030000FC
