S016000070726F796563746F5F66696E616C2E7372656330
S11300000C943A000C9457000C9457000C9457002D
S11300100C9457000C9489030C9457000C945700CB
S11300200C9457000C9457000C9457000C945700F0
S11300300C9457000C9457000C9457000C945700E0
S11300400C9457000C9457000C9459030C945700CB
S11300500C9457000C94A0020C9457000C94570075
S11300600C9457000C9457006364696E6F70737539
S113007078585B0011241FBECFEFD8E0DEBFCDBFA0
S113008011E0A0E0B1E0ECE8F3E102C005900D92CC
S1130090A63DB107D9F721E0A6EDB1E001C01D925C
S11300A0AB3FB207E1F70E94A7000C94C4090C947B
S11300B00000F999FECF72BD61BD80BD8FB384602D
S11300C08FBB8FB382608FBB0895F999FECF92BD29
S11300D081BD8FB381608FBB80B50895ECE7F0E0FC
S11300E010828081806480838081806280838081AB
S11300F081608083EAE7F0E01082808180688083F9
S1130100808188608083808187608083089584B142
S1130110816384B98AB18F788AB98BB180678BB9CE
S113012087B1816287B98AB184688AB988B18E7DC2
S113013088B98BB18B778BB9E8E6F0E08081846075
S11301408083EDE6F0E08081806780830895CF931B
S1130150DF9300D0CDB7DEB7E1E6F0E080818068C0
S113016080838081816080830E9487008FE19EE488
S11301700E94DD030E9423040E946E000E94670413
S113018078948091DD01813099F018F08230D1F0BB
S1130190F8CF85B18F7E85B985B18E7F85B985B15C
S11301A0806285B9EAE7F0E0808180648083E9CFEA
S11301B085B18F7D85B985B18F7E85B985B1816023
S11301C085B9DFCF85B18F7D85B985B18E7F85B93E
S11301D085B1806185B98DE791E00E94870480E054
S11301E091E00E9487048AE391E00E9487048DE7EE
S11301F091E00E9487048091D701813011F610921A
S1130200D701CE0101969F938F9301969F938F936D
S11302108FE791E09F938F9385EE91E09F938F9367
S11302200E9459060FB6F894DEBF0FBECDBF0297E9
S1130230F1F48A81823071F018F4813031F0A1CF69
S1130240833069F0843079F09CCF898190E00E94FA
S1130250F30397CF898190E00E940B0492CF8981A8
S11302600E9439048ECF89810E9450048ACF8AE883
S113027091E00E94870485CF8091D901813069F192
S113028038F0823009F44EC0833009F470C093C052
S113029088B18E7F88B988B1806288B98BB18F7735
S11302A08BB98BB18B7F8BB960E070E08091F501E5
S11302B00E94590061E070E08091FA010E945900A7
S11302C062E070E08091E2010E94590063E070E016
S11302D08091F6010E9459006EC088B1816088B98E
S11302E088B18F7D88B98BB18F778BB98BB18B7FB8
S11302F08BB964E070E08091F5010E94590065E0DB
S113030070E08091FA010E94590066E070E08091EB
S1130310E2010E94590067E070E08091F6010E94BA
S1130320590049C088B18E7F88B988B18F7D88B95A
S11303308BB180688BB98BB18B7F8BB968E070E02F
S11303408091F5010E94590069E070E08091FA0102
S11303500E9459006AE070E08091E2010E94590015
S11303606BE070E08091F6010E94590024C088B1CE
S11303708E7F88B988B18F7D88B98BB18F778BB91F
S11303808BB184608BB96CE070E08091F5010E94C0
S113039059006DE070E08091FA010E9459006EE00E
S11303A070E08091E2010E9459006FE070E080915A
S11303B0F6010E9459008091D90190E00196837062
S11303C09078992324F401978C6F9F6F0196809302
S11303D0D90108958091D801813079F138F08230C3
S11303E009F452C0833009F476C09BC088B18E7F73
S11303F088B988B18F7D88B98BB18F778BB98BB170
S113040084608BB980E090E00E94650090E00E94D7
S1130410F30381E090E00E94650090E00E940B04E9
S113042082E090E00E9465000E94390483E090E03D
S11304300E9465000E94500474C088B18E7F88B900
S113044088B18F7D88B98BB180688BB98BB18B7F74
S11304508BB984E090E00E94650090E00E94F30371
S113046085E090E00E94650090E00E940B0486E025
S113047090E00E9465000E94390487E090E00E94A9
S113048065000E9450044DC088B1816088B988B16C
S11304908F7D88B98BB18F778BB98BB18B7F8BB9FB
S11304A088E090E00E94650090E00E94F30389E0F8
S11304B090E00E94650090E00E940B048AE090E0C6
S11304C00E9465000E9439048BE090E00E94650060
S11304D00E94500426C088B18E7F88B988B180629A
S11304E088B98BB18F778BB98BB18B7F8BB98CE04B
S11304F090E00E94650090E00E94F3038DE090E09C
S11305000E94650090E00E940B048EE090E00E943F
S113051065000E9439048FE090E00E9465000E940B
S113052050048091D80190E00196837090789923CB
S113053024F401978C6F9F6F01968093D8010895DE
S11305401F920F920FB60F9211242F933F934F9344
S11305505F936F937F938F939F93AF93BF93EF9327
S1130560FF93809179008093E1018091DE018130D5
S113057051F138F0823009F44BC0833009F469C07A
S113058087C081E08093DE01ECE7F0E01082808197
S113059080648083808180628083808182608083A4
S11305A08091E1018093E40124EB829FC001112436
S11305B06FEF70E00E9431066093F501862F90E0A2
S11305C00E94F30365C082E08093DE01ECE7F0E073
S11305D010828081806480838081806280838081B6
S11305E0816080838081826080838091E101809337
S11305F0DF0124EB829FC00111246FEF70E00E94A1
S113060031066093FA01862F90E00E940B0440C0EB
S113061083E08093DE01ECE7F0E010828081806467
S113062080838081806280838081846080838091E4
S1130630E1018093E00124EB829FC00111246FEF5C
S113064070E00E943106862F6093E2010E94390413
S11306501FC01092DE01ECE7F0E01082808180641C
S113066080838081806280838081816080838091A7
S1130670E1018093F70124EB829FC00111246FEF05
S113068070E00E943106862F6093F6010E945004A8
S1130690FF91EF91BF91AF919F918F917F916F9156
S11306A05F914F913F912F910F900FBE0F901F902C
S11306B018951F920F920FB60F9211248F939F9348
S11306C0EF93FF938091C6008093E3018A3069F031
S11306D0E091D601EF3048F491E09E0F9093D6015B
S11306E0F0E0EB51FE4F80830BC081E08093D70193
S11306F0E091D601F0E0EB51FE4F10821092D6014A
S1130700FF91EF919F918F910F900FBE0F901F90CB
S113071018951F920F920FB60F9211242F933F93A7
S11307204F935F936F937F938F939F93AF93BF93F5
S1130730EF93FF934C990AC08091DB01811106C0AD
S113074081E08093DB010E943C0102C01092DB0136
S11307504D990AC08091DA01811106C081E080932D
S1130760DA010E94EA0102C01092DA014E9912C025
S11307708091DC0181110EC081E08093DC018091C5
S1130780DD0190E0019663E070E00E943106809301
S1130790DD0102C01092DC01FF91EF91BF91AF9196
S11307A09F918F917F916F915F914F913F912F9185
S11307B00F900FBE0F901F9018959C0194B19660F6
S11307C094B9E0E8F0E0108282EA8083E1E8F0E0A6
S11307D0108288E1808390819260908330938700B7
S11307E0209386000895BC0180E090E00E943605C5
S11307F026E636E640EA51E40E94C40520E030E0F3
S113080046E954E40E949B040E9407057093890002
S1130810609388000895BC0180E090E00E94360552
S113082026E636E648E951E40E94C40520E030E0BB
S113083046E954E40E949B040E94070570938B00D0
S113084060938A00089584B1886084B98AB188600D
S11308508AB9E0EBF0E010828081806A8083808135
S113086083608083E1EBF0E0108280818760808385
S11308700895682F70E080E090E00E9436052CE532
S11308803FE842E45EE30E94C40520E030E040EA31
S113089050E40E949B040E9407056093B3000895EE
S11308A0682F70E080E090E00E9436052CE53FE878
S11308B042E45EE30E94C40520E030E040EA50E4F4
S11308C00E949B040E9407056093B40008958AB1B6
S11308D082608AB98AB18E7F8AB91092C000E1EC35
S11308E0F0E0808188698083E2ECF0E080818660BA
S11308F0808383E390E09093C5008093C4000895BF
S11309009091C00095FFFCCF8093C60008950F938B
S11309101F93CF938C01C0E003C00E948004CF5F7B
S1130920F801EC0FF11D80818111F7CFCF911F9158
S11309300F9108955058BB27AA270E94B2040C9423
S11309408A050E947C0538F00E94830520F039F462
S11309509F3F19F426F40C9479050EF4E095E7FB17
S11309600C947305E92F0E949B0558F3BA1762078C
S113097073078407950720F079F4A6F50C94BD0558
S11309800EF4E0950B2EBA2FA02D0B01B9019001A6
S11309900C01CA01A0011124FF27591B99F0593FEA
S11309A050F4503E68F11A16F040A22F232F342F32
S11309B04427585FF3CF469537952795A795F04080
S11309C05395C9F77EF41F16BA0B620B730B840B95
S11309D0BAF09150A1F0FF0FBB1F661F771F881F4D
S11309E0C2F70EC0BA0F621F731F841F48F48795A5
S11309F077956795B795F7959E3F08F0B0CF939597
S1130A00880F08F09927EE0F9795879508950E940F
S1130A10A30588F09F5798F0B92F9927B751B0F0E4
S1130A20E1F0660F771F881F991F1AF0BA95C9F76E
S1130A3014C0B13091F00E94BD05B1E008950C944A
S1130A40BD05672F782F8827B85F39F0B93FCCF3FD
S1130A50869577956795B395D9F73EF490958095EB
S1130A60709561957F4F8F4F9F4F0895E89409C00B
S1130A7097FB3EF490958095709561957F4F8F4FCD
S1130A809F4F9923A9F0F92F96E9BB279395F695E3
S1130A90879577956795B795F111F8CFFAF4BB0F61
S1130AA011F460FF1BC06F5F7F4F8F4F9F4F16C0C5
S1130AB0882311F096E911C0772321F09EE8872F4F
S1130AC0762F05C0662371F096E8862F70E060E00B
S1130AD02AF09A95660F771F881FDAF7880F969584
S1130AE0879597F9089597F99F6780E870E060E02B
S1130AF008959FEF80EC089500240A9416161706B3
S1130B0018060906089500240A94121613061406FA
S1130B1005060895092E0394000C11F4882352F05D
S1130B20BB0F40F4BF2B11F460FF04C06F5F7F4F15
S1130B308F4F9F4F089557FD9058440F551F59F0FC
S1130B405F3F71F04795880F97FB991F61F09F3FB6
S1130B5079F087950895121613061406551FF2CFDF
S1130B604695F1DF08C0161617061806991FF1CF2F
S1130B7086957105610508940895E894BB27662756
S1130B807727CB0197F908950E94D7050C948A051D
S1130B900E947C0538F00E94830520F0952311F013
S1130BA00C9473050C94790511240C94BE050E94D1
S1130BB09B0570F3959FC1F3950F50E0551F629FFD
S1130BC0F001729FBB27F00DB11D639FAA27F00DA2
S1130BD0B11DAA1F649F6627B00DA11D661F829FC9
S1130BE02227B00DA11D621F739FB00DA11D621FAE
S1130BF0839FA00D611D221F749F3327A00D611DCB
S1130C00231F849F600D211D822F762F6A2F1124AC
S1130C109F5750409AF0F1F088234AF0EE0FFF1FDF
S1130C20BB1F661F771F881F91505040A9F79E3F36
S1130C30510580F00C9473050C94BE055F3FE4F3FA
S1130C40983ED4F3869577956795B795F795E7958C
S1130C509F5FC1F7FE2B880F911D9695879597F995
S1130C60089597FB072E16F4009407D077FD09D05A
S1130C700E94450607FC05D03EF4909581959F4F50
S1130C800895709561957F4F0895AA1BBB1B51E190
S1130C9007C0AA1FBB1FA617B70710F0A61BB70BE8
S1130CA0881F991F5A95A9F780959095BC01CD018D
S1130CB00895AEE0B0E0EFE5F6E00C949D0985E020
S1130CC08C838B899C899A838983AE01495E5F4FAB
S1130CD06D897E89CE0101960E940E082E96E2E06F
S1130CE00C94B90920FD09C0FC0123FD05C022FFB5
S1130CF002C07383628351834083089544FD17C007
S1130D0046FD17C0AB01BC01DA01FB01AA0FBB1FF2
S1130D10EE1FFF1F1094D1F74A0F5B1F6E1F7F1F3A
S1130D20CB01BA01660F771F881F991F09C033E0F2
S1130D3001C034E0660F771F881F991F3150D1F727
S1130D40620F711D811D911D08950F931F93CF9301
S1130D50DF938C01C8010E943309EC0197FD08C0A0
S1130D600E941F09892BB1F7B801CE010E947109B5
S1130D70CE01DF91CF911F910F9108958F929F9291
S1130D80AF92BF92EF92FF920F931F93CF93DF9393
S1130D908C01D62F7A01B22E0E9433099C0133278D
S1130DA02B32310531F02D32310561F48B2D806801
S1130DB0B82ED15011F480E068C0C8010E943309F4
S1130DC097FDF9CFCB2DCD7F2B2D207309F58033E3
S1130DD0F9F4AA24AA94AD0E09F443C0C8010E94F0
S1130DE0330997FD3EC09C012F7D332728353105FB
S1130DF049F4C264D250A9F1C8010E94330997FF93
S1130E0007C02FC0B6FE02C0C26001C0C261DA2DA5
S1130E10812C912C540120ED280F283080F0C4FF40
S1130E2004C0B8010E94710919C02A3040F0C6FFFD
S1130E30F8CF2F7D3FEE320F363098F727504C2FE6
S1130E40C501B4010E947E064B015C01C260D15011
S1130E5059F0C8010E94330997FFDDCFC1FD04C0DA
S1130E60AACF812C912C5401C7FF08C0B094A09440
S1130E7090948094811C911CA11CB11C2C2FB50151
S1130E80A401C7010E94720681E0DF91CF911F91F6
S1130E900F91FF90EF90BF90AF909F908F90089527
S1130EA0A0E2B0E0E6E5F7E00C9490095C01962E30
S1130EB07A01F9018E010F5F1F4F680180E2D801AA
S1130EC01D928A95E9F7D50113968C9080E090E005
S1130ED0612C712C30E061E070E083FC259183FE8D
S1130EE021918F01522E211103C080E090E092C025
S1130EF02E3511F4009751F1432F50E0481759074C
S1130F003CF42D3559F12D3219F4772009F103C041
S1130F10772009F46AC0452D469546954695D60135
S1130F20A40FB11D452D47708B0102C0000F111F86
S1130F304A95E2F7A8015C91452B4C93651459F04E
S1130F40561410F45394E7CF5A94E5CF31E004C01B
S1130F507724739401C0712C0196BFCF772019F0C8
S1130F608E8180628E83311103C08824839417C0DC
S1130F70F6019E012F5D3F4F8081809581932E174E
S1130F803F07D1F7F2CFE114F10429F0D7018C9394
S1130F90F70131967F019A94812C9920F9F0C501CB
S1130FA00E94330997FD18C0FC01FF2723E0F59543
S1130FB0E7952A95E1F7EC0DFD1D208130E0AC01A9
S1130FC04770552702C0359527954A95E2F720FDCD
S1130FD0DACFB5010E947109811087CFE114F104C1
S1130FE011F0D7011C92C80115C0422F46954695B1
S1130FF04695D601A40FB11D422F47708B0102C044
S1131000000F111F4A95E2F7A8015C91452B4C9300
S1131010622EA2CFA096EFE00C94AC09A0E0B0E061
S1131020E4E1F8E00C9490096C01EB015A01FC0135
S113103017821682512CF601E380FE01E3FC8591B0
S1131040E3FE8191182FEF01882309F4EEC090E0AC
S11310500E941F09892B21F0C6010E94A506EBCF2F
S1131060153241F4FE01E3FC1591E3FE1191EF0109
S1131070153281F4C6010E94330997FDD4C0412F73
S113108050E09C01332724173507A9F2B6010E94CA
S11310907109CBC01A3239F4E3FC1591E3FE1191C6
S11310A0EF0101E001C000E0F12C20ED210F2A3016
S11310B080F402606F2D70E080E090E040E20E94D6
S11310C07E06F62EFE01E3FC1591E3FE1191EF017D
S11310D0ECCF01FF03C0F11003C0A7C0FF24FA94B2
S11310E0183619F01C3651F010C0FE01E3FC1591BE
S11310F0E3FE1191EF01183641F408600460FE012B
S1131100E3FC1591E3FE1191EF01112309F48DC065
S1131110612F70E088E690E00E942809892B09F489
S113112084C000FD07C0F50180809180C50102964E
S11311305C0102C0812C912C1E3651F4F6014681CB
S1131140578160E070E0202FC4010E94720673CFC3
S11311501336A9F401FD02C0FF24F394C6010E94D2
S1131160330997FD60C08114910429F0F401808350
S1131170C40101964C01FA94F110F0CF50C01B3514
S113118059F49E01A4016F2DC6010E945007EC0181
S1131190892B09F044C03EC0C6010E94A50697FDF4
S11311A042C01F3661F128F4143639F1193651F171
S11311B028C0133771F0153701F123C0811491044D
S11311C029F0F4016082C40101964C01FA94FF20D5
S11311D071F0C6010E9433093C0197FD08C00E94CA
S11311E01F09892B59F3B601C3010E9471098114A7
S11311F09104A9F0F401108212C0006203C00061DE
S113120001C00064202FA4016F2DC6010E94BE06F8
S1131210811105C0F6018381807329F406C000FDA5
S11312200ACF539408CF552019F0852D90E002C0C1
S11312308FEF9FEFCDB7DEB7EFE00C94AC099111BF
S11312400C948A09803219F089508550C8F70895A2
S1131250FC010590061621F00020D9F7C00108957D
S11312603197CF010895CF93DF93EC012B8120FFB9
S113127033C026FF0AC02F7B2B838E819F8101966A
S11312809F838E838A8190E029C022FF0FC0E8816A
S1131290F9818081082E000C990B009719F42062C3
S11312A02B831AC03196F983E8830EC0EA85FB8547
S11312B0099597FF09C02B81019611F080E201C0C6
S11312C080E1822B8B8308C02E813F812F5F3F4FAB
S11312D03F832E83992702C08FEF9FEFDF91CF9139
S11312E00895FB01238120FF12C026FD10C08F3F0B
S11312F03FEF930761F082832F7D2064238326814F
S113130037812150310937832683992708958FEF38
S11313109FEF08959927882708952F923F924F921F
S11313205F926F927F928F929F92AF92BF92CF9271
S1131330DF92EF92FF920F931F93CF93DF93CDB77A
S1131340DEB7CA1BDB0B0FB6F894DEBF0FBECDBFF2
S113135009942A88398848885F846E847D848C84C3
S11313609B84AA84B984C884DF80EE80FD800C81CC
S11313701B81AA81B981CE0FD11D0FB6F894DEBFAF
S10F13800FBECDBFED010895F894FFCF1F
S113138C5573746564206573746120656E206D6F8C
S113139C646F2041646166727569742C20706F727D
S11313AC206661766F72206D7565766120756E208E
S11313BC736C696465722E200A00496E64697175D8
S11313CC652071756520736572766F6D6F746F72BD
S11313DC206465736561206D6F7665722065206984
S11313EC6E677265736520756E2076616C6F722002
S11313FC646520302061203235352E20200A0025EA
S113140C6868752C2025686875004F706369F36EE5
S113141C206E6F2076616C6964612C20706F722071
S113142C6661766F7220696E677265736520656C90
S113143C20736572766F6D6F746F72207920616E94
S113144C67756C6F20636F6D6F2022312C313830CF
S109145C222E200A2000EC
S9030000FC
